{
  "contractName": "Bidding",
  "abi": [
    {
      "inputs": [],
      "stateMutability": "nonpayable",
      "type": "constructor"
    },
    {
      "inputs": [
        {
          "internalType": "uint256",
          "name": "",
          "type": "uint256"
        }
      ],
      "name": "Requests",
      "outputs": [
        {
          "internalType": "address",
          "name": "owner",
          "type": "address"
        },
        {
          "internalType": "string",
          "name": "productName",
          "type": "string"
        },
        {
          "internalType": "address",
          "name": "winner",
          "type": "address"
        }
      ],
      "stateMutability": "view",
      "type": "function"
    },
    {
      "inputs": [],
      "name": "id",
      "outputs": [
        {
          "internalType": "uint256",
          "name": "",
          "type": "uint256"
        }
      ],
      "stateMutability": "view",
      "type": "function"
    },
    {
      "inputs": [],
      "name": "owner",
      "outputs": [
        {
          "internalType": "address",
          "name": "",
          "type": "address"
        }
      ],
      "stateMutability": "view",
      "type": "function"
    },
    {
      "inputs": [
        {
          "internalType": "string",
          "name": "productName",
          "type": "string"
        },
        {
          "internalType": "string[]",
          "name": "indicatorName",
          "type": "string[]"
        },
        {
          "internalType": "string[]",
          "name": "indicatorUnit",
          "type": "string[]"
        },
        {
          "internalType": "bool[]",
          "name": "indicatorHigh2low",
          "type": "bool[]"
        },
        {
          "internalType": "uint256[]",
          "name": "priceScoreList",
          "type": "uint256[]"
        }
      ],
      "name": "createRFQ",
      "outputs": [],
      "stateMutability": "payable",
      "type": "function"
    },
    {
      "inputs": [
        {
          "internalType": "uint256",
          "name": "requestID",
          "type": "uint256"
        },
        {
          "internalType": "uint256",
          "name": "indicatorIndex",
          "type": "uint256"
        },
        {
          "internalType": "uint256[]",
          "name": "scoreList",
          "type": "uint256[]"
        }
      ],
      "name": "setScoreList",
      "outputs": [],
      "stateMutability": "nonpayable",
      "type": "function"
    },
    {
      "inputs": [
        {
          "internalType": "uint256",
          "name": "requestID",
          "type": "uint256"
        },
        {
          "internalType": "string",
          "name": "supplierName",
          "type": "string"
        },
        {
          "internalType": "uint256[]",
          "name": "indicatorValueList",
          "type": "uint256[]"
        }
      ],
      "name": "enrollIn",
      "outputs": [],
      "stateMutability": "nonpayable",
      "type": "function"
    },
    {
      "inputs": [
        {
          "internalType": "uint256",
          "name": "requestID",
          "type": "uint256"
        },
        {
          "internalType": "address[]",
          "name": "suppliers",
          "type": "address[]"
        }
      ],
      "name": "selectSuppliers",
      "outputs": [],
      "stateMutability": "nonpayable",
      "type": "function"
    },
    {
      "inputs": [
        {
          "internalType": "uint256",
          "name": "requestID",
          "type": "uint256"
        },
        {
          "internalType": "string",
          "name": "priceCode",
          "type": "string"
        },
        {
          "internalType": "string",
          "name": "encryptedPrice",
          "type": "string"
        }
      ],
      "name": "offerEncryptedPrice",
      "outputs": [],
      "stateMutability": "nonpayable",
      "type": "function"
    },
    {
      "inputs": [
        {
          "internalType": "uint256",
          "name": "requestID",
          "type": "uint256"
        },
        {
          "internalType": "uint256",
          "name": "price",
          "type": "uint256"
        }
      ],
      "name": "announcePrice",
      "outputs": [],
      "stateMutability": "nonpayable",
      "type": "function"
    },
    {
      "inputs": [
        {
          "internalType": "uint256",
          "name": "requestID",
          "type": "uint256"
        },
        {
          "internalType": "address[]",
          "name": "suppliers",
          "type": "address[]"
        }
      ],
      "name": "buyerConfirmValidSuppliers",
      "outputs": [],
      "stateMutability": "nonpayable",
      "type": "function"
    },
    {
      "inputs": [
        {
          "internalType": "uint256",
          "name": "requestID",
          "type": "uint256"
        },
        {
          "internalType": "address",
          "name": "winner",
          "type": "address"
        }
      ],
      "name": "confirmWinner",
      "outputs": [],
      "stateMutability": "nonpayable",
      "type": "function"
    },
    {
      "inputs": [
        {
          "internalType": "uint256",
          "name": "requestID",
          "type": "uint256"
        }
      ],
      "name": "showWinner",
      "outputs": [
        {
          "internalType": "address",
          "name": "",
          "type": "address"
        }
      ],
      "stateMutability": "view",
      "type": "function"
    },
    {
      "inputs": [
        {
          "internalType": "uint256",
          "name": "requestNumber",
          "type": "uint256"
        },
        {
          "internalType": "address",
          "name": "supplier",
          "type": "address"
        }
      ],
      "name": "showSupplierTotalsore",
      "outputs": [
        {
          "internalType": "uint256",
          "name": "",
          "type": "uint256"
        }
      ],
      "stateMutability": "view",
      "type": "function"
    }
  ],
  "bytecode": "0x6080604052600060015534801561001557600080fd5b50336000806101000a81548173ffffffffffffffffffffffffffffffffffffffff021916908373ffffffffffffffffffffffffffffffffffffffff1602179055506128e3806100656000396000f3fe6080604052600436106100c25760003560e01c8063a496d8ee1161007f578063ea17093b11610059578063ea17093b14610266578063eb86f8091461028f578063fa7b4351146102cc578063faceedb8146102f5576100c2565b8063a496d8ee146101e9578063af640d0f14610212578063d1994ad11461023d576100c2565b806303c8be67146100c757806320a860471461010457806340ac99931461012d5780638a9f90571461016c5780638da5cb5b146101955780639cd45de6146101c0575b600080fd5b3480156100d357600080fd5b506100ee60048036038101906100e9919061200b565b610311565b6040516100fb919061258d565b60405180910390f35b34801561011057600080fd5b5061012b60048036038101906101269190612070565b610359565b005b34801561013957600080fd5b50610154600480360381019061014f919061200b565b610627565b604051610163939291906125a8565b60405180910390f35b34801561017857600080fd5b50610193600480360381019061018e9190612034565b610736565b005b3480156101a157600080fd5b506101aa610843565b6040516101b7919061258d565b60405180910390f35b3480156101cc57600080fd5b506101e760048036038101906101e2919061220c565b610867565b005b3480156101f557600080fd5b50610210600480360381019061020b91906121d0565b6109fb565b005b34801561021e57600080fd5b50610227610c03565b60405161023491906126e6565b60405180910390f35b34801561024957600080fd5b50610264600480360381019061025f91906120c8565b610c09565b005b34801561027257600080fd5b5061028d60048036038101906102889190612151565b610ea2565b005b34801561029b57600080fd5b506102b660048036038101906102b19190612034565b61112e565b6040516102c391906126e6565b60405180910390f35b3480156102d857600080fd5b506102f360048036038101906102ee9190612070565b611197565b005b61030f600480360381019061030a9190611f06565b611465565b005b60006002828154811061032057fe5b90600052602060002090600b0201600a0160009054906101000a900473ffffffffffffffffffffffffffffffffffffffff169050919050565b6002838154811061036657fe5b90600052602060002090600b020160000160009054906101000a900473ffffffffffffffffffffffffffffffffffffffff1673ffffffffffffffffffffffffffffffffffffffff163373ffffffffffffffffffffffffffffffffffffffff1614610405576040517f08c379a00000000000000000000000000000000000000000000000000000000081526004016103fc90612666565b60405180910390fd5b60005b82829050811015610621576002848154811061042057fe5b90600052602060002090600b0201600701600084848481811061043f57fe5b90506020020160208101906104549190611eb4565b73ffffffffffffffffffffffffffffffffffffffff1673ffffffffffffffffffffffffffffffffffffffff16815260200190815260200160002060010160009054906101000a900460ff166104de576040517f08c379a00000000000000000000000000000000000000000000000000000000081526004016104d5906126a6565b60405180910390fd5b600284815481106104eb57fe5b90600052602060002090600b020160030183838381811061050857fe5b905060200201602081019061051d9190611eb4565b9080600181540180825580915050600190039060005260206000200160009091909190916101000a81548173ffffffffffffffffffffffffffffffffffffffff021916908373ffffffffffffffffffffffffffffffffffffffff16021790555060016002858154811061058c57fe5b90600052602060002090600b020160070160008585858181106105ab57fe5b90506020020160208101906105c09190611eb4565b73ffffffffffffffffffffffffffffffffffffffff1673ffffffffffffffffffffffffffffffffffffffff16815260200190815260200160002060010160016101000a81548160ff0219169083151502179055508080600101915050610408565b50505050565b6002818154811061063457fe5b90600052602060002090600b02016000915090508060000160009054906101000a900473ffffffffffffffffffffffffffffffffffffffff1690806001018054600181600116156101000203166002900480601f0160208091040260200160405190810160405280929190818152602001828054600181600116156101000203166002900480156107065780601f106106db57610100808354040283529160200191610706565b820191906000526020600020905b8154815290600101906020018083116106e957829003601f168201915b50505050509080600a0160009054906101000a900473ffffffffffffffffffffffffffffffffffffffff16905083565b6002828154811061074357fe5b90600052602060002090600b020160000160009054906101000a900473ffffffffffffffffffffffffffffffffffffffff1673ffffffffffffffffffffffffffffffffffffffff163373ffffffffffffffffffffffffffffffffffffffff16146107e2576040517f08c379a00000000000000000000000000000000000000000000000000000000081526004016107d990612666565b60405180910390fd5b80600283815481106107f057fe5b90600052602060002090600b0201600a0160006101000a81548173ffffffffffffffffffffffffffffffffffffffff021916908373ffffffffffffffffffffffffffffffffffffffff1602179055505050565b60008054906101000a900473ffffffffffffffffffffffffffffffffffffffff1681565b6002848154811061087457fe5b90600052602060002090600b020160000160009054906101000a900473ffffffffffffffffffffffffffffffffffffffff1673ffffffffffffffffffffffffffffffffffffffff163373ffffffffffffffffffffffffffffffffffffffff1614610913576040517f08c379a000000000000000000000000000000000000000000000000000000000815260040161090a90612666565b60405180910390fd5b60005b828290508110156109a1576002858154811061092e57fe5b90600052602060002090600b0201600801848154811061094a57fe5b906000526020600020906005020160030183838381811061096757fe5b9050602002013590806001815401808255809150506001900390600052602060002001600090919091909150558080600101915050610916565b506001600285815481106109b157fe5b90600052602060002090600b020160080184815481106109cd57fe5b906000526020600020906005020160020160016101000a81548160ff02191690831515021790555050505050565b60028281548110610a0857fe5b90600052602060002090600b020160070160003373ffffffffffffffffffffffffffffffffffffffff1673ffffffffffffffffffffffffffffffffffffffff16815260200190815260200160002060010160029054906101000a900460ff16610aa6576040517f08c379a0000000000000000000000000000000000000000000000000000000008152600401610a9d906125e6565b60405180910390fd5b8060028381548110610ab457fe5b90600052602060002090600b020160070160003373ffffffffffffffffffffffffffffffffffffffff1673ffffffffffffffffffffffffffffffffffffffff1681526020019081526020016000206004018190555060028281548110610b1657fe5b90600052602060002090600b0201600501339080600181540180825580915050600190039060005260206000200160009091909190916101000a81548173ffffffffffffffffffffffffffffffffffffffff021916908373ffffffffffffffffffffffffffffffffffffffff160217905550600160028381548110610b9757fe5b90600052602060002090600b020160070160003373ffffffffffffffffffffffffffffffffffffffff1673ffffffffffffffffffffffffffffffffffffffff16815260200190815260200160002060010160036101000a81548160ff0219169083151502179055505050565b60015481565b60028581548110610c1657fe5b90600052602060002090600b02016008016005908054610c37929190611721565b508181905060058054905014610c82576040517f08c379a0000000000000000000000000000000000000000000000000000000008152600401610c7990612646565b60405180910390fd5b60028581548110610c8f57fe5b90600052602060002090600b0201600201339080600181540180825580915050600190039060005260206000200160009091909190916101000a81548173ffffffffffffffffffffffffffffffffffffffff021916908373ffffffffffffffffffffffffffffffffffffffff160217905550838360028781548110610d1057fe5b90600052602060002090600b020160070160003373ffffffffffffffffffffffffffffffffffffffff1673ffffffffffffffffffffffffffffffffffffffff1681526020019081526020016000206000019190610d6e929190611851565b50600160028681548110610d7e57fe5b90600052602060002090600b020160070160003373ffffffffffffffffffffffffffffffffffffffff1673ffffffffffffffffffffffffffffffffffffffff16815260200190815260200160002060010160006101000a81548160ff02191690831515021790555060005b600580549050811015610e9a5760028681548110610e0357fe5b90600052602060002090600b020160070160003373ffffffffffffffffffffffffffffffffffffffff1673ffffffffffffffffffffffffffffffffffffffff168152602001908152602001600020600501838383818110610e6057fe5b9050602002013590806001815401808255809150506001900390600052602060002001600090919091909150558080600101915050610de9565b505050505050565b60028381548110610eaf57fe5b90600052602060002090600b020160070160003373ffffffffffffffffffffffffffffffffffffffff1673ffffffffffffffffffffffffffffffffffffffff16815260200190815260200160002060010160019054906101000a900460ff16610f4d576040517f08c379a0000000000000000000000000000000000000000000000000000000008152600401610f4490612686565b60405180910390fd5b8160028481548110610f5b57fe5b90600052602060002090600b020160070160003373ffffffffffffffffffffffffffffffffffffffff1673ffffffffffffffffffffffffffffffffffffffff1681526020019081526020016000206002019080519060200190610fbf9291906118d1565b508060028481548110610fce57fe5b90600052602060002090600b020160070160003373ffffffffffffffffffffffffffffffffffffffff1673ffffffffffffffffffffffffffffffffffffffff16815260200190815260200160002060030190805190602001906110329291906118d1565b506002838154811061104057fe5b90600052602060002090600b0201600401339080600181540180825580915050600190039060005260206000200160009091909190916101000a81548173ffffffffffffffffffffffffffffffffffffffff021916908373ffffffffffffffffffffffffffffffffffffffff1602179055506001600284815481106110c157fe5b90600052602060002090600b020160070160003373ffffffffffffffffffffffffffffffffffffffff1673ffffffffffffffffffffffffffffffffffffffff16815260200190815260200160002060010160026101000a81548160ff021916908315150217905550505050565b60006002838154811061113d57fe5b90600052602060002090600b020160070160008373ffffffffffffffffffffffffffffffffffffffff1673ffffffffffffffffffffffffffffffffffffffff16815260200190815260200160002060060154905092915050565b600283815481106111a457fe5b90600052602060002090600b020160000160009054906101000a900473ffffffffffffffffffffffffffffffffffffffff1673ffffffffffffffffffffffffffffffffffffffff163373ffffffffffffffffffffffffffffffffffffffff1614611243576040517f08c379a000000000000000000000000000000000000000000000000000000000815260040161123a90612666565b60405180910390fd5b60005b8282905081101561145f576002848154811061125e57fe5b90600052602060002090600b0201600701600084848481811061127d57fe5b90506020020160208101906112929190611eb4565b73ffffffffffffffffffffffffffffffffffffffff1673ffffffffffffffffffffffffffffffffffffffff16815260200190815260200160002060010160039054906101000a900460ff1661131c576040517f08c379a000000000000000000000000000000000000000000000000000000000815260040161131390612626565b60405180910390fd5b6002848154811061132957fe5b90600052602060002090600b020160060183838381811061134657fe5b905060200201602081019061135b9190611eb4565b9080600181540180825580915050600190039060005260206000200160009091909190916101000a81548173ffffffffffffffffffffffffffffffffffffffff021916908373ffffffffffffffffffffffffffffffffffffffff1602179055506001600285815481106113ca57fe5b90600052602060002090600b020160070160008585858181106113e957fe5b90506020020160208101906113fe9190611eb4565b73ffffffffffffffffffffffffffffffffffffffff1673ffffffffffffffffffffffffffffffffffffffff16815260200190815260200160002060010160046101000a81548160ff0219169083151502179055508080600101915050611246565b50505050565b60008888905090508087879050146114b2576040517f08c379a00000000000000000000000000000000000000000000000000000000081526004016114a9906126c6565b60405180910390fd5b8085859050146114f7576040517f08c379a00000000000000000000000000000000000000000000000000000000081526004016114ee90612606565b60405180910390fd5b600260018160018154018082558091505003906000526020600020905050600060026001548154811061152657fe5b90600052602060002090600b0201905060018060008282540192505081905550338160000160006101000a81548173ffffffffffffffffffffffffffffffffffffffff021916908373ffffffffffffffffffffffffffffffffffffffff1602179055508b8b82600101919061159c929190611851565b5083838260090191906115b0929190611951565b5060005b828110156117125781600801600181600181540180825580915050039060005260206000209050508a8a828181106115e857fe5b90506020028101906115fa9190612701565b83600801838154811061160957fe5b90600052602060002090600502016000019190611627929190611851565b5088888281811061163457fe5b90506020028101906116469190612701565b83600801838154811061165557fe5b90600052602060002090600502016001019190611673929190611851565b5086868281811061168057fe5b90506020020160208101906116959190611edd565b8260080182815481106116a457fe5b906000526020600020906005020160020160006101000a81548160ff02191690831515021790555060008260080182815481106116dd57fe5b906000526020600020906005020160020160016101000a81548160ff02191690831515021790555080806001019150506115b4565b50505050505050505050505050565b8280548282559060005260206000209060050281019282156118405760005260206000209160050282015b8281111561183f5782826000820181600001908054600181600116156101000203166002900461177d92919061199e565b50600182018160010190805460018160011615610100020316600290046117a592919061199e565b506002820160009054906101000a900460ff168160020160006101000a81548160ff0219169083151502179055506002820160019054906101000a900460ff168160020160016101000a81548160ff0219169083151502179055506003820181600301908054611816929190611a25565b50600482018160040190805461182d929190611a77565b5050509160050191906005019061174c565b5b50905061184d9190611b40565b5090565b828054600181600116156101000203166002900490600052602060002090601f016020900481019282601f1061189257803560ff19168380011785556118c0565b828001600101855582156118c0579182015b828111156118bf5782358255916020019190600101906118a4565b5b5090506118cd9190611bbf565b5090565b828054600181600116156101000203166002900490600052602060002090601f016020900481019282601f1061191257805160ff1916838001178555611940565b82800160010185558215611940579182015b8281111561193f578251825591602001919060010190611924565b5b50905061194d9190611bbf565b5090565b82805482825590600052602060002090810192821561198d579160200282015b8281111561198c578235825591602001919060010190611971565b5b50905061199a9190611bbf565b5090565b828054600181600116156101000203166002900490600052602060002090601f016020900481019282601f106119d75780548555611a14565b82800160010185558215611a1457600052602060002091601f016020900482015b82811115611a135782548255916001019190600101906119f8565b5b509050611a219190611bbf565b5090565b828054828255906000526020600020908101928215611a665760005260206000209182015b82811115611a65578254825591600101919060010190611a4a565b5b509050611a739190611bbf565b5090565b828054828255906000526020600020906002028101928215611b2f5760005260206000209160020282015b82811115611b2e5782826000820160009054906101000a900473ffffffffffffffffffffffffffffffffffffffff168160000160006101000a81548173ffffffffffffffffffffffffffffffffffffffff021916908373ffffffffffffffffffffffffffffffffffffffff16021790555060018201548160010155505091600201919060020190611aa2565b5b509050611b3c9190611bdc565b5090565b5b80821115611bbb5760008082016000611b5a9190611c22565b600182016000611b6a9190611c22565b6002820160006101000a81549060ff02191690556002820160016101000a81549060ff0219169055600382016000611ba29190611c6a565b600482016000611bb29190611c8b565b50600501611b41565b5090565b5b80821115611bd8576000816000905550600101611bc0565b5090565b5b80821115611c1e57600080820160006101000a81549073ffffffffffffffffffffffffffffffffffffffff0219169055600182016000905550600201611bdd565b5090565b50805460018160011615610100020316600290046000825580601f10611c485750611c67565b601f016020900490600052602060002090810190611c669190611bbf565b5b50565b5080546000825590600052602060002090810190611c889190611bbf565b50565b5080546000825560020290600052602060002090810190611cac9190611bdc565b50565b600081359050611cbe81612868565b92915050565b60008083601f840112611cd657600080fd5b8235905067ffffffffffffffff811115611cef57600080fd5b602083019150836020820283011115611d0757600080fd5b9250929050565b60008083601f840112611d2057600080fd5b8235905067ffffffffffffffff811115611d3957600080fd5b602083019150836020820283011115611d5157600080fd5b9250929050565b60008083601f840112611d6a57600080fd5b8235905067ffffffffffffffff811115611d8357600080fd5b602083019150836020820283011115611d9b57600080fd5b9250929050565b60008083601f840112611db457600080fd5b8235905067ffffffffffffffff811115611dcd57600080fd5b602083019150836020820283011115611de557600080fd5b9250929050565b600081359050611dfb8161287f565b92915050565b60008083601f840112611e1357600080fd5b8235905067ffffffffffffffff811115611e2c57600080fd5b602083019150836001820283011115611e4457600080fd5b9250929050565b600082601f830112611e5c57600080fd5b8135611e6f611e6a82612785565b612758565b91508082526020830160208301858383011115611e8b57600080fd5b611e96838284612815565b50505092915050565b600081359050611eae81612896565b92915050565b600060208284031215611ec657600080fd5b6000611ed484828501611caf565b91505092915050565b600060208284031215611eef57600080fd5b6000611efd84828501611dec565b91505092915050565b60008060008060008060008060008060a08b8d031215611f2557600080fd5b60008b013567ffffffffffffffff811115611f3f57600080fd5b611f4b8d828e01611e01565b9a509a505060208b013567ffffffffffffffff811115611f6a57600080fd5b611f768d828e01611d58565b985098505060408b013567ffffffffffffffff811115611f9557600080fd5b611fa18d828e01611d58565b965096505060608b013567ffffffffffffffff811115611fc057600080fd5b611fcc8d828e01611d0e565b945094505060808b013567ffffffffffffffff811115611feb57600080fd5b611ff78d828e01611da2565b92509250509295989b9194979a5092959850565b60006020828403121561201d57600080fd5b600061202b84828501611e9f565b91505092915050565b6000806040838503121561204757600080fd5b600061205585828601611e9f565b925050602061206685828601611caf565b9150509250929050565b60008060006040848603121561208557600080fd5b600061209386828701611e9f565b935050602084013567ffffffffffffffff8111156120b057600080fd5b6120bc86828701611cc4565b92509250509250925092565b6000806000806000606086880312156120e057600080fd5b60006120ee88828901611e9f565b955050602086013567ffffffffffffffff81111561210b57600080fd5b61211788828901611e01565b9450945050604086013567ffffffffffffffff81111561213657600080fd5b61214288828901611da2565b92509250509295509295909350565b60008060006060848603121561216657600080fd5b600061217486828701611e9f565b935050602084013567ffffffffffffffff81111561219157600080fd5b61219d86828701611e4b565b925050604084013567ffffffffffffffff8111156121ba57600080fd5b6121c686828701611e4b565b9150509250925092565b600080604083850312156121e357600080fd5b60006121f185828601611e9f565b925050602061220285828601611e9f565b9150509250929050565b6000806000806060858703121561222257600080fd5b600061223087828801611e9f565b945050602061224187828801611e9f565b935050604085013567ffffffffffffffff81111561225e57600080fd5b61226a87828801611da2565b925092505092959194509250565b612281816127cd565b82525050565b6000612292826127b1565b61229c81856127bc565b93506122ac818560208601612824565b6122b581612857565b840191505092915050565b60006122cd6022836127bc565b91507f796f752068617665206e6f74206f6666657220656e637279707465642070726960008301527f63650000000000000000000000000000000000000000000000000000000000006020830152604082019050919050565b60006123336025836127bc565b91507f696e64696361746f7248696768326c6f77206c656e677468206469646e27742060008301527f6d617463680000000000000000000000000000000000000000000000000000006020830152604082019050919050565b60006123996023836127bc565b91507f6f6e6520737570706c69657220686173206e6f7420616e6e6f756e636520707260008301527f69636500000000000000000000000000000000000000000000000000000000006020830152604082019050919050565b60006123ff6022836127bc565b91507f696e64696361746f7256616c75654c697374206c656e6774682069732077726f60008301527f6e670000000000000000000000000000000000000000000000000000000000006020830152604082019050919050565b6000612465600c836127bc565b91507f756e617574686f72697a656400000000000000000000000000000000000000006000830152602082019050919050565b60006124a5601d836127bc565b91507f796f7520617265206e6f742073656c65637465642062792062757965720000006000830152602082019050919050565b60006124e5601d836127bc565b91507f6f6e6520737570706c69657220686173206e6f7420656e726f6c6c65640000006000830152602082019050919050565b60006125256021836127bc565b91507f696e64696361746f72556e6974206c656e677468206469646e2774206d61746360008301527f68000000000000000000000000000000000000000000000000000000000000006020830152604082019050919050565b6125878161280b565b82525050565b60006020820190506125a26000830184612278565b92915050565b60006060820190506125bd6000830186612278565b81810360208301526125cf8185612287565b90506125de6040830184612278565b949350505050565b600060208201905081810360008301526125ff816122c0565b9050919050565b6000602082019050818103600083015261261f81612326565b9050919050565b6000602082019050818103600083015261263f8161238c565b9050919050565b6000602082019050818103600083015261265f816123f2565b9050919050565b6000602082019050818103600083015261267f81612458565b9050919050565b6000602082019050818103600083015261269f81612498565b9050919050565b600060208201905081810360008301526126bf816124d8565b9050919050565b600060208201905081810360008301526126df81612518565b9050919050565b60006020820190506126fb600083018461257e565b92915050565b6000808335600160200384360303811261271a57600080fd5b80840192508235915067ffffffffffffffff82111561273857600080fd5b60208301925060018202360383131561275057600080fd5b509250929050565b6000604051905081810181811067ffffffffffffffff8211171561277b57600080fd5b8060405250919050565b600067ffffffffffffffff82111561279c57600080fd5b601f19601f8301169050602081019050919050565b600081519050919050565b600082825260208201905092915050565b60006127d8826127eb565b9050919050565b60008115159050919050565b600073ffffffffffffffffffffffffffffffffffffffff82169050919050565b6000819050919050565b82818337600083830152505050565b60005b83811015612842578082015181840152602081019050612827565b83811115612851576000848401525b50505050565b6000601f19601f8301169050919050565b612871816127cd565b811461287c57600080fd5b50565b612888816127df565b811461289357600080fd5b50565b61289f8161280b565b81146128aa57600080fd5b5056fea2646970667358221220454072921daeb61b6139fcfebe529b2f6a58a82b37599622e3c00b2052f7b84464736f6c63430007010033",
  "immutableReferences": {},
  "source": "// SPDX-License-Identifier: GPL-3.0\n\npragma solidity ^0.7.1;\npragma experimental ABIEncoderV2;\n\ncontract Bidding {\n    address public owner;\n    uint256 public id = 0;\n    RFQ[] public Requests;\n\n    address[] tempAddr;\n    uint256[] tmpScoreList;\n\n    Indicator[] tempIndicator;\n\n    struct RFQ { // request for qutation\n        address owner;\n        string productName;\n        address[] suppliersEnroll;\n        address[] suppliersSelected;\n        address[] suppliersOfferEncryptedPrice;\n        address[] suppliersAnnouncePrice;\n        address[] suppliersValid;\n        mapping (address => Supplier) suppliers;\n        Indicator[] indicators;\n        uint256[] priceScoreList;\n        address winner;\n    }\n\n    struct Supplier {\n        string supplierName;\n        bool enroll;\n        bool selected;\n        bool priceOffered;\n        bool priceAnnounced;\n        bool priceValid;\n        string priceCode;\n        string encryptedPrice;\n        uint256 price;\n        uint256[] indicatorValueList;\n        uint256 totalScore;\n    }\n\n    // indicator for product or service\n    struct Indicator {\n        string name;\n        string unit;\n        bool high2low;\n        bool scoreReady;\n        uint256[] scoreList;\n        IndicatorSuppliersValue[] finalSuppliersValue;\n    }\n\n    struct IndicatorSuppliersValue {\n        address supplier;\n        uint256 value;\n    }\n\n    struct SupplierIndicatorScore {\n        address supplier;\n        IndicatorScore[] indicatorScore;\n    }\n\n    struct IndicatorScore {\n        string name;\n        uint256 value;\n        uint256 score;\n    }\n\n    constructor() {\n        owner = msg.sender;\n    }\n\n    // buyer request for qutation\n    function createRFQ(\n        string calldata productName,\n        // Indicator[] calldata indicators   because conflux studio did support this kind of parameters splict the Indicator\n        // uint256[] scoreList in indicator had to be set in another function\n        string[] calldata indicatorName,\n        string[] calldata indicatorUnit,\n        bool[] calldata indicatorHigh2low,\n        uint256[] calldata priceScoreList\n    ) public payable {\n        uint256 numberIndicator = indicatorName.length;\n        require(indicatorUnit.length == numberIndicator,  \"indicatorUnit length didn't match\");\n        require(indicatorHigh2low.length == numberIndicator,  \"indicatorHigh2low length didn't match\");\n        Requests.push();\n        RFQ storage request = Requests[id];\n        id += 1;\n        request.owner = msg.sender;\n        request.productName = productName;\n        request.priceScoreList = priceScoreList;\n        for (uint i = 0; i < numberIndicator; i++) {\n            //Indicator storage newIndicator;\n            request.indicators.push();\n            request.indicators[i].name = indicatorName[i];\n            request.indicators[i].unit = indicatorUnit[i];\n            request.indicators[i].high2low = indicatorHigh2low[i];\n            request.indicators[i].scoreReady = false;\n        }\n    }\n\n    function setScoreList(uint256 requestID, uint256 indicatorIndex, uint256[] calldata scoreList) public {\n        require(msg.sender == Requests[requestID].owner, \"unauthorized\");\n        for(uint i = 0; i < scoreList.length; i++) {\n            Requests[requestID].indicators[indicatorIndex].scoreList.push(scoreList[i]);\n        }\n        Requests[requestID].indicators[indicatorIndex].scoreReady = true;\n    }\n\n    function enrollIn(uint256 requestID, string calldata supplierName, uint256[] calldata indicatorValueList) public {\n        tempIndicator = Requests[requestID].indicators;\n        require(tempIndicator.length == indicatorValueList.length, \"indicatorValueList length is wrong\");\n        Requests[requestID].suppliersEnroll.push(msg.sender);\n        Requests[requestID].suppliers[msg.sender].supplierName = supplierName;\n        Requests[requestID].suppliers[msg.sender].enroll = true;\n        for (uint i = 0; i < tempIndicator.length; i++) {\n            Requests[requestID].suppliers[msg.sender].indicatorValueList.push(indicatorValueList[i]);\n        }\n    }\n\n    function selectSuppliers(uint256 requestID, address[] calldata suppliers) public {\n        require(msg.sender == Requests[requestID].owner, \"unauthorized\");\n        for (uint i = 0; i < suppliers.length; i++) {\n            require(Requests[requestID].suppliers[suppliers[i]].enroll, 'one supplier has not enrolled');            \n            Requests[requestID].suppliersSelected.push(suppliers[i]);\n            Requests[requestID].suppliers[suppliers[i]].selected =  true;\n        }\n    }\n\n    function offerEncryptedPrice (uint256 requestID, string memory priceCode, string memory encryptedPrice) public {\n        require(Requests[requestID].suppliers[msg.sender].selected, 'you are not selected by buyer');\n        Requests[requestID].suppliers[msg.sender].priceCode = priceCode;\n        Requests[requestID].suppliers[msg.sender].encryptedPrice = encryptedPrice;\n        Requests[requestID].suppliersOfferEncryptedPrice.push(msg.sender);\n        Requests[requestID].suppliers[msg.sender].priceOffered = true;\n    }\n\n    function announcePrice(uint256 requestID, uint256 price) public {\n        require(Requests[requestID].suppliers[msg.sender].priceOffered, 'you have not offer encrypted price');\n        Requests[requestID].suppliers[msg.sender].price = price;\n        Requests[requestID].suppliersAnnouncePrice.push(msg.sender);\n        Requests[requestID].suppliers[msg.sender].priceAnnounced = true;\n    }\n    \n    // considering calculation on chain will cost a lot, we put price validation on the cloud side\n    function buyerConfirmValidSuppliers(uint256 requestID, address[] calldata suppliers) public {\n        require(msg.sender == Requests[requestID].owner, \"unauthorized\");\n        for (uint i = 0; i < suppliers.length; i++) {\n            require(Requests[requestID].suppliers[suppliers[i]].priceAnnounced, 'one supplier has not announce price');\n            Requests[requestID].suppliersValid.push(suppliers[i]);\n            Requests[requestID].suppliers[suppliers[i]].priceValid =  true;\n        }\n    }\n\n    // considering calculation on chain will cost a lot, we put this calculation on the cloud side\n    /*\n    function compareScore(uint256 requestID) public {\n        // prepare finalSuppliersValue\n        address[] memory suppliersValid = Requests[requestID].suppliersValid;\n        tempIndicator = Requests[requestID].indicators;\n        for (uint j = 0; j < tempIndicator.length; j++) {\n            Requests[requestID].indicators[j].finalSuppliersValue.push();\n            for (uint i = 0; i < suppliersValid.length; i++) {\n                Requests[requestID].indicators[j].finalSuppliersValue.push(IndicatorSuppliersValue({\n                    supplier: suppliersValid[i],\n                    value: Requests[requestID].suppliers[suppliersValid[i]].indicatorValueList[j]\n                }));\n            }\n        }\n        // calculate score\n        for (uint j = 0; j < tempIndicator.length; j++) {\n            //sortIndicator(tempIndicator[j].finalSuppliersValue);\n            uint256 numberSupplierGotScore;\n            if (tempIndicator[j].finalSuppliersValue.length >= tempIndicator[j].scoreList.length) {\n                numberSupplierGotScore = tempIndicator[j].scoreList.length;\n            } else {\n                numberSupplierGotScore = tempIndicator[j].finalSuppliersValue.length;\n            }\n            for (uint i = 0; i < numberSupplierGotScore; i++) {\n                address supplierAddres;\n                supplierAddres = tempIndicator[j].finalSuppliersValue[i].supplier;\n                if(tempIndicator[j].high2low) {\n                    Requests[requestID].suppliers[supplierAddres].totalScore += tempIndicator[j].scoreList[numberSupplierGotScore-i-1];\n                } else {\n                    Requests[requestID].suppliers[supplierAddres].totalScore += tempIndicator[j].scoreList[i];\n                }\n            }\n        }\n        // find winner\n        Supplier memory winnerSupplier;\n        address winnerAddress;\n        for (uint i = 0; i < suppliersValid.length; i++) {\n            if (Requests[requestID].suppliers[suppliersValid[i]].totalScore > winnerSupplier.totalScore) {\n                winnerSupplier = Requests[requestID].suppliers[suppliersValid[i]];\n                winnerAddress = suppliersValid[i];\n            }\n        }\n    }\n    */\n\n    function confirmWinner(uint256 requestID, address winner) public {\n        require(msg.sender == Requests[requestID].owner, \"unauthorized\");\n        Requests[requestID].winner = winner;\n    }\n\n    // getters\n    function showWinner(uint256 requestID) external view returns (address) {\n        return Requests[requestID].winner;\n    }\n\n    function showSupplierTotalsore(uint256 requestNumber, address supplier) external view returns (uint256) {\n        return Requests[requestNumber].suppliers[supplier].totalScore;\n    }\n\n    function sortIndicator(IndicatorSuppliersValue [] storage array) internal{\n        QuickSortIndicator(array, 0, array.length - 1);\n    }\n    \n    function QuickSortIndicator(IndicatorSuppliersValue [] storage array, uint256 left, uint256 right) internal {\n        uint256 i = left;\n        uint256 j = right;\n        // base\n        if(i == j)\n            return;\n        uint256 pivot = array[ uint256(left + (right - left) / 2) ].value;\n        while (i <= j) {           \n            while (array[i].value < pivot) \n                i++;            \n            while (pivot < array[j].value) \n                j--;           \n            if (i <= j) {\n                IndicatorSuppliersValue memory temp;\n                temp.supplier = array[i].supplier;\n                temp.value = array[i].value;\n                array[i].supplier = array[j].supplier;\n                array[i].value = array[j].value;\n                array[j].supplier = temp.supplier;\n                array[j].value = temp.value;\n                //(array[i], array[j]) = (array[j], array[i]);\n                i++;\n                j--;\n            }\n        }        \n        // branch \n        if (left < j)\n            QuickSortIndicator(array, left, j);\n        if (i < right)\n            QuickSortIndicator(array, i, right);\n    }\n\n}",
  "sourcePath": "/Users/yangjinlong/Documents/conflux-bidding/contracts/Bidding.sol",
  "compiler": {
    "name": "solc",
    "version": "0.7.1+commit.f4a555be.Emscripten.clang"
  },
  "schemaVersion": "3.2.0",
  "updatedAt": "2020-12-09T13:28:16.879Z",
  "devdoc": {
    "kind": "dev",
    "methods": {},
    "version": 1
  },
  "userdoc": {
    "kind": "user",
    "methods": {},
    "version": 1
  }
}